:1011C60053554E004D4F4E0054554500574544006B
:1011D60054485500465249005341540053657474AF
:1011E600696E6720436C6F636B002F3230002020DE
:1011F60000202020002053657474696E672020410A
:101206006C61726D2000414C4D313A004F4E20000A
:101216004F462000414C4D323A004F4E004F46009B
:101226002053657474696E6720414C4D312000204F
:1012360053657474696E6720414C4D32200020203E
:1012460020202020202020004D4F4E3A20007620DE
:1012560020200078202020005455453A200057458C
:10126600443A20005448553A20004652493A200054
:101276005341543A200053554E3A2000455849549C
:06128600202020202000C2
:1016C100152EFF11C6FF11CAFF11CEFF11D2FF1156
:1016D100D6FF11DAFF11DE0161000167000126006A
:0C16E100016300016200012C00016000A8
:0F17FF00D2907F027E0012180ED2917F027E00E0
:0B180E00EF1FAC0670011E4C70F622AC
:0C189100D290D291C29012180AC291228B
:0A18B500C290C291121808D29022CE
:0B189D001217FFA290920FC291A20F41
:0118A800221D
:02171900AD071A
:10171B00E4FBEBC39408748094805015A803ED0888
:10172B008002C333D8FC339290121808C2910B80FD
:04173B00E102189D12
:08000300C290121801C2912203
:0618BF001217FFC2912286
:10169400E4FDFBEBC394087480948050121217FF8E
:1016A400ED25E0FFA290E4334FFDC2910B80E430BE
:0C16B4000F0512000380031218BFAF05E1
:0116C0002207
:041864007F037E0080
:0B186800EF1FAC0670011E4C70F62252
:04173F007F0A7E009F
:10174300E4FDFCC3ED9FEC9E5015E4FBFA0BBB00DC
:0F175300010AEB647D4A70F50DBD00010C80E4C6
:011762002264
:10178600E4FDEDC39464748094805015D2A47F194F
:101796007E00121868C2A47F197E001218680D8098
:0117A600E161
:0117A700221F
:031853001217E386
:0E185600D282121864C2827F327E00021868AD
:1017E300EF139284EFC313139285EF1313543F1334
:0C17F3009286EF131313541F13928722E9
:10184100AD07EDC4540FFF121853AF051217E30291
:02185100185627
:0C18A9007F011218417F0A7E00021868BF
:10150B00E4FF1217E37F147E00121743C280C281DF
:10151B007F031218537F057E001217431218567F54
:10152B00647E001218681218567F021217E3121805
:10153B00567F281218417F0C1218417F0612184152
:05154B007F01021841C0
:03176300E4FDFFA3
:10176600ED7006EF2480FB8004EF24C0FB7FE87E4B
:1017760003121868AF031218417F327E0002186800
:0D181900FF75F00A120344AFF0EF4430FFFA
:08182600D280121841C2802299
:10182E00120366FF600C121826740129F9E43AFAC5
:03183E0080EE2217
:0413A5008E088F0916
:1013A900E5094508606EC3E5086480948050057FAF
:1013B9002D121826E4FBE50945086039D3E509949F
:1013C90000E50864809480AE08AF09400280077C7C
:1013D900FF7DFF1204357C007D0A120447740A2B35
:1013E900F8A605AE08AF097C007D0A1204478E08ED
:1013F9008F090B80C1EBFF3395E0FED3EF9400EE2C
:1014090064809480401374092BF8E64430FF121865
:09141900261B80E17F3012182629
:0114220022A7
:0810FC008F178E168D158C1460
:101104001202C38E188F19E4FFFEFDFCAB17AA165A
:10111400A915A81412020C402EAC18AD19EC120239
:101124008AA804A905AA06AB07AF17AE16AD15AC7D
:1011340014120011E4FBFA7920784112010612021C
:10114400C38E1A8F1B805EAC18AD19EC12028AA8EC
:1011540004A905AA06AB07AF17AE16AD15AC141259
:101164000011E4FBFA792078C11201061202C38E41
:101174001A8F1B7FCD7ECC7DCC7CBDAB17AA16A964
:1011840015A81412020C6002501BE4FFFE7D807C43
:10119400BFAB17AA16A915A81412020C60074005C4
:1011A4007F2D121826AF19AE181213A5C3E51A64C1
:1011B400809480400C7F2E121826AF1BAE1A121397
:0111C400A585
:0111C5002207
:02163400151C83
:10163600A81C7601A91CE76022C2927F3C7E00129C
:101646001868D2927F057E00121868A292E433A829
:0B1656001CF67F0A7E0012186880D985
:03166100051C2243
:10159300E4FDFBEBFF3395E0FEC3EF9408EE6480BC
:1015A30094805021C292D292121864309214A803EC
:1015B3007401088002C333D8FC42057F067E001203
:0715C30018680B80CEAF0594
:0115CA0022FE
:08155000151CA81CA607151CC0
:10155800A81CE4F6A81CE6FF3395E0FEC3EF940848
:10156800EE64809480501FC29208C000E6A2E71380
:10157800D000F69292121864D2927F067E0012185A
:0615880068A81C0680CEDD
:05158E00051C051C22F4
:1017A800AA071216347FCC1215507F4E121550AF6F
:0E17B80002121550AF05121550AF0302155066
:02166400AA07D3
:101666001218917FD0121719AF021217191218917A
:101676007FD1121719C20F121694AD071218B5EDC5
:0D168600C4540F75F00AA4FEED540F2EFFA2
:011693002234
:1015CB00E4FF1216648F647F011216648F687F022A
:1015DB001216648F447F031216648F437F04121616
:1015EB00648F277F051216648F2B7F061216648F6C
:0815FB002DE544A2E69208224E
:0416EE00AA05A90799
:1016F200EA75F00A84C454F0FEEA75F00A84EE45F5
:10170200F0FA1218917FD0121719AF01121719AF00
:07171200021217190218B5BD
:10160300AD64E4FF1216EEAD687F011216EEAD4431
:101613007F021216EEAD437F031216EEAD277F0451
:101623001216EEAD2B7F051216EEAD2D7F060216B8
:01163300EEC8
:10147F00AD457F081216EEAD467F091216EEAD4947
:10148F007F0A1216EEAD4A7F0B1216EEAD4B7F0C94
:10149F001216EEAD4C7F0D1216EEAD4D7F0E1216DD
:1014AF00EEAD4E7F0F1216EEAD4F7F101216EEAD52
:0614BF00507F110216EE41
:1014C500AD517F121216EEAD527F131216EEAD55C9
:1014D5007F141216EEAD567F151216EEAD577F1618
:1014E5001216EEAD587F171216EEAD597F1812166B
:1014F500EEAD5A7F191216EEAD5B7F1A1216EEADE0
:061505005C7F1B0216EEE4
:10128C007F081216648F457F091216648F467F0AF9
:10129C001216648F497F0B1216648F4A7F0C12163C
:1012AC00648F4B7F0D1216648F4C7F0E1216648F59
:1012BC004D7F0F1216648F4E7F101216648F4F7F66
:1012CC00111216648F507F121216648F517F1312F5
:1012DC0016648F527F141216648F557F1512166484
:1012EC008F567F161216648F577F171216648F58FD
:1012FC007F181216648F597F191216648F5A7F1A31
:0D130C001216648F5B7F1B1216648F5C222B
:100F2E00E52D75F004120344AFF0EF75F064A4FFE5
:100F3E00E568FD3395E0FCD3ED943BEC6480948042
:100F4E004003E4F568E544FD3395E0FCD3ED9417DA
:100F5E00EC648094804003E4F544E543FD3395E072
:100F6E00FCD3ED9407EC648094804003754301E557
:100F7E002BFD3395E0FCED64024C7017E527FB3337
:100F8E0095E0FAD3EB941DEA648094804005EF70EF
:100F9E00028065ED64024C7017E527FD3395E0FC89
:100FAE00D3ED941CEC648094804005EF6002804881
:100FBE00E52BFD3395E0FCED64044C6012ED640608
:100FCE004C600CED64094C6006ED640B4C7017E53B
:100FDE0027FD3395E0FCD3ED941EEC6480948040A5
:100FEE0005EF60028012E527FD3395E0FCD3ED940A
:100FFE001FEC648094804003752701E52BFD33952B
:10100E00E0FCD3ED940CEC648094804003752B01CE
:10101E00E5683395E0C364809480500375683BE5C2
:10102E00443395E0C3648094805003754417E543C0
:10103E00FD3395E0FCC3ED9401EC64809480500385
:10104E00754307E52BFD3395E0FCED64024C701AF9
:10105E00E527FB3395E0FAC3EB9401EA64809480B4
:10106E005008EF700575271D806EED64024C701AE6
:10107E00E527FD3395E0FCC3ED9401EC648094808C
:10108E005008EF600575271C804EE52BFD3395E06B
:10109E00FCED64044C6012ED64064C600CED6409CA
:1010AE004C6006ED640B4C701AE527FD3395E0FCA1
:1010BE00C3ED9401EC648094805008EF60057527B1
:1010CE001E8015AF27EF3395E0FEC3EF9401EE645B
:1010DE00809480500375271FAF2BEF3395E0FEC32E
:0D10EE00EF9401EE648094805003752B0C8C
:0110FB0022D2
:100CC800AB5DAA5EA95F90000312037F14B40B000A
:100CD8005059900CE875F003A4C58325F0C58373BB
:100CE800020D09020D09020D0F020D0F020D160269
:100CF8000D16020D1D020D1D020D24020D24020DFC
:100D08002B900002E480219000027401801A900068
:100D180002740280139000027403800C9000027425
:100D28000480059000037401120413120366FF3354
:100D380095E0FED3EF943BEE648094804004E41287
:100D48000401AB5DAA5EA95F90000112037FFF3327
:100D580095E0FED3EF9417EE6480948040079000EE
:100D680001E41204131203663395E0C3648094808F
:100D78005005743B120401AB5DAA5EA95F900001A7
:100D880012037F3395E0C36480948050089000017B
:100D98007417120413E54665446003020E65E545C1
:100DA80065686003020E65AF43EF3395E0FEEF64BC
:100DB800024E70047F0180027F00EFB54A031217CC
:100DC80086AF43EF3395E0FEEF64034E70047F0176
:100DD80080027F00EFB54B03121786AF43EF3395C0
:100DE800E0FEEF64044E70047F0180027F00EFB5DF
:100DF8004C03121786AF43EF3395E0FEEF64054EC0
:100E080070047F0180027F00EFB54D03121786AF93
:100E180043EF3395E0FEEF64064E70047F018002D5
:100E28007F00EFB54E03121786AF43EF3395E0FE10
:100E3800EF64074E70047F0180027F00EFB54F0317
:100E4800121786AF43EF3395E0FEEF64014E70044E
:100E58007F0180027F00EFB55003121786E55265C7
:100E6800446003020F2DE55165686003020F2DAF42
:100E780043EF3395E0FEEF64024E70047F01800279
:100E88007F00EFB55603121786AF43EF3395E0FEA8
:100E9800EF64034E70047F0180027F00EFB55703B3
:100EA800121786AF43EF3395E0FEEF64044E7004EB
:100EB8007F0180027F00EFB55803121786AF43EF1A
:100EC8003395E0FEEF64054E70047F0180027F00D9
:100ED800EFB55903121786AF43EF3395E0FEEF6481
:100EE800064E70047F0180027F00EFB55A03121787
:100EF80086AF43EF3395E0FEEF64074E70047F0141
:100F080080027F00EFB55B03121786AF43EF33957E
:100F1800E0FEEF64014E70047F0180027F00EFB5B0
:060F28005C031217862293
:1009840030A003020A2512173F0562AF62D3EF9429
:100994001E748094804016EF942074809480500DCF
:1009A4001217861218A9D20EE4F567C206AF627E4A
:1009B40000D3EF943A748094804033EF943C748075
:1009C4009480502A1217861218A920A015121763B2
:1009D4007BFF7A1179E212182EE4FF1216648F64F9
:1009E40080E81218A9C209C20E756701D20620A0B8
:1009F400333000301217863006100567D3E567944C
:100A040006748094804003756701300E02B2093089
:100A14000205200502054830030A30050705548005
:100A240003E4F562A2A0920030A203020B13121792
:100A34003F0526D3E526940C7480948040057526E2
:100A44000DD20D30A203020B16200D03020B16C3A8
:100A5400E526940D74809480500312178630062C7A
:100A6400E56724FE601414601514601614601714EE
:100A7400601824057016056880120544800E05432D
:100A8400800A05278006052B8002052D300E0C20D8
:100A94000903754901300903755501AB5DAA5EA9C7
:100AA4005F90000312037F14B409005065900ABFDD
:100AB40075F003A4C58325F0C58373020ADA020A1C
:100AC400E1020AEB020AF0020AF5020AFA020AFF3C
:100AD400020B04020B0974011203AC80359000016F
:100AE40074011203CE802B900005801C90000680B8
:100AF400179000078012900008800D90000980086C
:100B040090000A800390000B74011204138003E424
:100B1400F526A2A2920D30A303020C0012173F0582
:100B240063D3E563940C74809480400575630DD29F
:100B34000430A303020C03200403020C03C3E56383
:100B4400940D74809480500312178630062CE56748
:100B540024FE6014146015146016146017146018D1
:100B640024057016156880121544800E1543800AFA
:100B740015278006152B8002152D300E0C20090335
:100B8400E4F549300903E4F555AB5DAA5EA95F902D
:100B9400000312037F14B409005064900BAD75F088
:100BA40003A4C58325F0C58373020BC8020BCF02CF
:100BB4000BD9020BDE020BE3020BE8020BED020B76
:100BC400F2020BF774FF1203AC803490000174FF3F
:100BD4001203CE802A900005801C90000680179096
:100BE40000078012900008800D9000098008900092
:100BF4000A800390000BE41204138003E4F563A25B
:100C0400A3920430A103020CA012173F30A10302E7
:100C14000CA0200B03020CA012178630060B12182E
:100C2400A9C206E4F567121603300E41E5496007D0
:100C3400754801D202C20EE5556007755401D2030E
:100C4400C20EE5497006E5556002D205E549600625
:100C5400E5556002C205E5497013E555700FFD7F47
:100C64000A1216EEE4FD7F141216EEC20EAF48EF20
:100C74003395E0FEEF640A4E700D300302D2051284
:100C8400147FE4F548C202AF54EF3395E0FEEF64FD
:100C94000A4E70081214C5E4F554C203A2A1920BC3
:100CA40030020C200509755D00755E00755F4530E6
:100CB400030C300509755D00755E00755F51120FF8
:040CC4002E020CC828
:1004E000300603200C18300E030205AB3002030265
:1004F00005AB3003030205AB3006030205AB121750
:1005000063E54475F00A1203444430FF121826E5EF
:100510004412181A7F3A121826E56875F00A120379
:10052000444430FF121826E56812181A7F3A121850
:1005300026E56475F00A1203444430FF121826E5DC
:100540006412181A7D017F02121766E54375F003E5
:10055000A4242BF8860308E6FA08E6F912182E7F81
:1005600020121826E52775F00A1203444430FF12C2
:100570001826E52712181A7F2F121826E52B75F07A
:100580000A1203444430FF121826E52B12181A7B76
:10059000FF7A1179F012182EE52D75F00A12034436
:1005A0004430FF121826E52D12181A200C5EE5675C
:1005B00024FE601614601814602414603014603C2B
:1005C00024057048E4FD7F038018E4FDFF80137D5F
:1005D000017F021217667BFF7A1179F7802B7D016C
:1005E0007F061217667BFF7A1179F4801C7D017FEC
:1005F000091217667BFF7A1179F4800D7D017F0E59
:100600001217667BFF7A1179F412182E200E03025E
:1006100006A1E4FDFF1217667BFF7A1179FB121821
:100620002E7D01E4FF1217667BFF7A12790C1218F7
:100630002E7D017F05121766300C40E54964017B71
:10064000FF70067A12791280047A12791612182E27
:100650007D017F091217667BFF7A12791A12182E14
:100660007D017F0E121766E55564017BFF70067AE7
:1006700012792080297A12792380232009107D01A4
:100680007F051217667BFF7A1179F412182E300954
:10069000107D017F0E1217667BFF7A1179F4121814
:1006A0002E200206200303020983E4FDFF121766D1
:1006B000AB5DAA5EA95F90000212037FFF3395E055
:1006C0004F60047F7F80027F20121826E549600C6E
:1006D0002005097BFF7A12792612182EE555600C49
:1006E0003005097BFF7A12793512182EAB5DAA5EB0
:1006F000A95F90000212037FFF3395E0FEEF6404D0
:100700004E60047F7E80027F201218267D01E4FF68
:10071000121766200C030208FFAB5DAA5EA95F906A
:10072000000212037FFF3395E04F70617BFF7A1167
:1007300079F712182EAB5DAA5EA95F900001120333
:100740007FFF75F00A1203444430FF121826AB5D98
:10075000AA5EA95F90000112037F1218197F3A1256
:100760001826AB5DAA5EA95F120366FF75F00A1238
:1007700003444430FF121826AB5DAA5EA95F120342
:10078000661218197BFF7A12794412182EAB5DAAF3
:100790005EA95F90000212037FFF3395E0FEEF64D5
:1007A000014E704C7BFF7A12794E12182EAB5DAA67
:1007B0005EA95F90000512037F7BFF60067A1279C5
:1007C0005480047A12795912182E7BFF7A12795EBE
:1007D00012182EAB5DAA5EA95F90000612037F7B04
:1007E000FF60067A12795480047A12795912182E11
:1007F000AB5DAA5EA95F90000212037FFF3395E014
:10080000FEEF64024E704C7BFF7A12796412182E50
:10081000AB5DAA5EA95F90000712037F7BFF6006B5
:100820007A12795480047A12795912182E7BFF7A41
:1008300012796A12182EAB5DAA5EA95F90000812A9
:10084000037F7BFF60067A12795480047A1279590B
:1008500012182EAB5DAA5EA95F90000212037FFF03
:100860003395E0FEEF64034E704C7BFF7A12797093
:1008700012182EAB5DAA5EA95F90000912037F7B60
:10088000FF60067A12795480047A12795912182E70
:100890007BFF7A12797612182EAB5DAA5EA95F9063
:1008A000000A12037F7BFF60067A12795480047A73
:1008B00012795912182EAB5DAA5EA95F9000021240
:1008C000037FFF3395E0FEEF64044E60030209836B
:1008D0007BFF7A12797C12182EAB5DAA5EA95F901D
:1008E000000B12037F7BFF60067A12795480047A32
:1008F00012795912182E7BFF7A127982020980AB85
:100900005DAA5EA95F90000312037F14B40A005031
:100910007290091F75F003A4C58325F0C583730287
:10092000093D02094C02095F02095B02095F0209E5
:100930005D02095F02096102095F0209737D017F9F
:10094000061217667BFF7A1179F480347D017F03EC
:100950001217667BFF7A1179F4802580048002806B
:10096000067D017F0E80047D017F051217667F20C2
:100970000218267D017F091217667BFF7A127944DF
:0309800012182E1C
:010983002251
:0F187300E4FF121664AD0753057FE4FF0216EE83
:0F1882005389F0438901D2AFD2A9D28DD28A22E5
:1017C60012188212187312150B12128CE567700824
:0D17D600300705C2071215CB1204E080EFAA
:03000B00021423B9
:10142300C0E0C0D075D000C000C001C004C006C079
:1014330007C28C758C3C758AB0D28C052CAF2C7E80
:1014430000EF64057002D207EF640A4E7008D207FA
:10145300B20C0560F52CE56064037011F56012169B
:10146300347FCC1215507F44121550D20AD007D0C6
:0C14730006D004D001D000D0D0D0E03270
:10000E0002032FE86480F8E933E83360110460F0EE
:10001E00ED33EC337009E8FCE9FDEAFEEBFF220458
:10002E0060DED3EB9FEA9EE99DE8C2E78CF0C2F753
:10003E0095F0400CE8CCF8E9CDF9EACEFAEBCFFB1F
:10004E001202FA85D0F05804700320D5B3E804707C
:10005E00075002B2D502033992D5EC0460F7E4CC16
:10006E00C0E0C398F8603B94186008400DD0E0FBE8
:10007E00020311E4FBFAC9FC8028E830E406E4C967
:10008E00FBE4CAFCE830E305E4C9CACBFCE854073C
:10009E006010F8C3E913F9EA13FAEB13FBEC13FC47
:1000AE00D8F130F52FC3E49CFCEF9BFFEE9AFEEDEA
:1000BE0099FDD0E0FBEF4E4D4C701222DB03020394
:1000CE0036EC2CFCEF33FFEE33FEED33FDED30E777
:1000DE00EB020311EF2BFFEE3AFEED39FDD0E0FB04
:1000EE0050130BBB0003020339ED13FDEE13FEEFAD
:0800FE0013FFEC13FC020311D7
:10010600EC4D6011E8497017ED33EC3304600DE4F3
:10011600FCFFFEFD22E933E8330470F802032F12D8
:1001260002FA58046009E4CC2481500628500902DA
:100136000339284003020336C0E0EB4A7044B98015
:1001460006D0E0FB020325EF4E701CBD8008EBFFD6
:10015600EAFEE9FD80EBE98DF0A4FEE5F00201EF91
:10016600E9CDF9EAFEEBFFEF89F0A4FCE5F0CE89D4
:10017600F0A42EFFE435F0CD89F0A42DFEE435F091
:100186008067EF4E7005BD80D780C3EF8BF0A4ACBF
:10019600F0EE8BF0A42CFCE435F0F8EF8AF0A42CFA
:1001A600E5F038FCE433CB8DF0A42CFCE5F03BF80D
:1001B600EE8AF0A42CFCE5F038F8E433CF89F0A4FD
:1001C6002CFCE5F038CF3400CE89F0A42FFFE5F003
:1001D6003EFEE433C98DF0A42EFEE5F039CD8AF05B
:1001E600A42FFFE5F03EFEE43DFD33D0E0FB5007D3
:1001F6000BBB000F020339EC2CFCEF33FFEE33FE92
:06020600ED33FD020311BF
:10020C0074F8CC6480CCC86480C8F58204604FC399
:10021C00EB9FF5F0EA9E42F0E99D42F0E89C45F038
:10022C00603C501DE5825FFFE582D313CB5BCBF4C2
:10023C002B5582FB50280ABA002409B900200880EB
:10024C001DE5825BFBE582D313CF5FCFF4C3132F85
:10025C005582FF50090EBE00050DBD00010CC3EB0D
:10026C009FF5F0EA9E42F0E99D42F0E89C45F06073
:09027C0007CC4820E701B3EC2295
:1002850075F020800E75F010800575F0087D007EF4
:10029500007F003392D530D50312047DEC33401036
:1002A500EF33FFEE33FEED33FDEC33FCD5F0ED22FD
:0E02B500E5F0247EA2D513CC92E7CDCEFF2239
:1002C300EDD2E7CD33EC3392D524814006E4FFFE33
:1002D300FDFC22FCE4CFCECDCC24E0501174FF8092
:1002E300EDC3CC13CCCD13CDCE13CECF13CF04702F
:0702F300F030D5DE02047DAE
:1002FA00E9D2E7C933E833F892D5EDD2E7CD33EC4A
:07030A0033FC5002B2D522C2
:10031100EC30E7100FBF000C0EBE00080DBD00044D
:100321000BEB6014A2D5EB13FCED92E7FD2274FFF9
:10033100FCFDFEFF22E480F8A2D574FF13FC7D8052
:03034100E480EF66
:03000000021319CF
:0C131900787FE4F6D8FD7581680213604F
:10034400C2D530F707B2D563F0FF05F030E70CB241
:10035400D5F4048463F0FF05F080018430D502F401
:02036400042271
:10036600BB010689828A83E0225002E722BBFE0295
:09037600E32289828A83E49322C8
:10037F00BB010CE58229F582E5833AF583E0225033
:10038F0006E92582F8E622BBFE06E92582F8E2227D
:0D039F00E58229F582E5833AF583E4932297
:1003AC00BB010989828A83F8E028F022500327F7E1
:1003BC0022BBFE05F8E328F3228A838982F8E493B2
:0203CC002822E5
:1003CE00BB010FF8E58229F582E5833AF583E02833
:1003DE00F0225009C58229F8E58226F622BBFE09D5
:1003EE00C58229F8E22582F222F8EA2583F583E90F
:0303FE009328221F
:10040100BB010689828A83F0225002F722BBFE01DA
:02041100F322D4
:10041300F8BB010DE58229F582E5833AF583E8F01F
:10042300225006E92582C8F622BBFE05E92582C8CB
:02043300F222B3
:10043500EF8DF0A4A8F0CF8CF0A428CE8DF0A42EDB
:02044500FE2295
:10044700C2D5EC30E709B2D5E4C39DFDE49CFCEED0
:1004570030E715B2D5E4C39FFFE49EFE12048BC3B9
:10046700E49DFDE49CFC800312048B30D507C3E4B4
:060477009FFFE49EFE223F
:0E047D00C3E49FFFE49EFEE49DFDE49CFC2290
:101325000217C6E493A3F8E493A34003F68001F201
:1013350008DFF48029E493A3F85407240CC8C333C9
:10134500C4540F4420C8834004F456800146F6DF98
:10135500E4800B01020408102040809016C1E47E51
:10136500019360BCA3FF543F30E509541FFEE4938D
:10137500A360010ECF54C025E060A840B8E493A354
:10138500FAE493A3F8E493A3C8C582C8CAC583CA7F
:10139500F0A3C8C582C8CAC583CADFE9DEE780BE37
:0116ED0000FC
:10048B00BC000BBE0029EF8DF084FFADF022E4CC55
:10049B00F875F008EF2FFFEE33FEEC33FCEE9DEC1E
:1004AB00984005FCEE9DFE0FD5F0E9E4CEFD22ED64
:1004BB00F8F5F0EE8420D21CFEADF075F008EF2FAE
:1004CB00FFED33FD4007985006D5F0F222C398FD9F
:0504DB000FD5F0EA223C
:00000001FF
