:1012FD0053554E004D4F4E00545545005745440033
:10130D005448550046524900534154005365747476
:10131D00696E6720436C6F636B002020002F3230A5
:10132D00002020200042616F205468756320004822
:10133D00652054686F6E67204E68756E6700543A6D
:10134D0000432000483A002520004E6F7420436F63
:10135D006E6E656374204448543232005365747464
:10136D00696E672020416C61726D2000414C4D31DA
:10137D003A004F4E20004F462000414C4D323A006E
:10138D004F4E004F46002053657474696E672041BF
:10139D004C4D3120002053657474696E6720414CAB
:1013AD004D322000202020202020202020004D4FD5
:1013BD004E3A200076202020007820202000545521
:1013CD00453A20005745443A20005448553A2000EC
:1013DD004652493A20005341543A200053554E3A53
:0C13ED00200045584954202020202000FA
:1017AB00152FFF12FDFF1301FF1305FF1309FF1385
:1017BB000DFF1311FF1315016D00016F00014D009B
:1017CB00012A00014400012C00012E00012B000115
:1017DB006A00016E00012900016C00016B00C189D8
:1017EB000845000E0E0E0E1F0004012D00016900AE
:0617FB000123000124009F
:0D1C38005389F0438901D2AFD2A9D28D2289
:10180500121C38121A0B121C1B7F90121C88121501
:101815009AE56E70083007051219D9C207300929F3
:10182500C2A912173C501E1219708F288E278D26BB
:101835008C25121BEF8F738E728D718C70C209D23D
:10184500A9C20F8004D20FC209120BA012000E12FA
:041855000F1C80BD27
:03000B0002192DAA
:10192D00C0E0C0D075D000C006C007C28C758C3C1D
:10193D00758AB0D28C052DAF2D7E00EF6405700237
:10194D00D207EF640A4E7008D207B20B0569F52D68
:10195D00E56964067004F569D209D007D006D0D0C8
:03196D00D0E03295
:101B1C00E4F508C3E5089432748094805016D2A47E
:101B2C007F197E00121C69C2A47F197E00121C69E9
:041B3C00050880DF39
:011B40002282
:100F1C00300B05E4F524F523E5526401600302105F
:100F2C0029E54FB54D1BE54EB56F16AF6DEF3395FB
:100F3C00E0FEC3EF9405EE648094805006D20D80E1
:100F4C0002C20D200D03021029AF23EF3395E0FEF2
:100F5C00D3EF9402EE648094804003021029AF44D6
:100F6C00EF3395E0FEEF64024E70047F0180027F48
:100F7C0000EFB55303121B1CAF44EF3395E0FEEFAB
:100F8C0064034E70047F0180027F00EFB55403129E
:100F9C001B1CAF44EF3395E0FEEF64044E70047FEE
:100FAC000180027F00EFB55503121B1CAF44EF33D9
:100FBC0095E0FEEF64054E70047F0180027F00EF28
:100FCC00B55603121B1CAF44EF3395E0FEEF6406DD
:100FDC004E70047F0180027F00EFB55703121B1C7B
:100FEC00AF44EF3395E0FEEF64074E70047F018051
:100FFC00027F00EFB55803121B1CAF44EF3395E092
:10100C00FEEF64014E70047F0180027F00EFB55942
:10101C0003121B1C05237F327E00121B64E55E64E9
:10102C0001600302112EE55BB54D1BE55AB56F1639
:10103C00AF6DEF3395E0FEC3EF9405EE64809480C2
:10104C005006D20E8002D20E200E0302112EAF24B7
:10105C00EF3395E0FED3EF9402EE6480948040036E
:10106C0002112EAF44EF3395E0FEEF64024E700494
:10107C007F0180027F00EFB55F03121B1CAF44EFB2
:10108C003395E0FEEF64034E70047F0180027F0015
:10109C00EFB56003121B1CAF44EF3395E0FEEF6419
:1010AC00044E70047F0180027F00EFB56103121BB8
:1010BC001CAF44EF3395E0FEEF64054E70047F01E6
:1010CC0080027F00EFB56203121B1CAF44EF339517
:1010DC00E0FEEF64064E70047F0180027F00EFB5E6
:1010EC006303121B1CAF44EF3395E0FEEF64074E15
:1010FC0070047F0180027F00EFB56403121B1CAFEC
:10110C0044EF3395E0FEEF64014E70047F018002E2
:10111C007F00EFB56503121B1C05247F327E001285
:02112C001B6442
:01112E00229E
:1018A100AD4E7F08121A6EAD4F7F09121A6EAD52FE
:1018B1007F0A121A6EAD537F0B121A6EAD547F0C54
:1018C100121A6EAD557F0D121A6EAD567F0E121A99
:1018D1006EAD577F0F121A6EAD587F10121A6EAD92
:0618E100597F11021A6E8E
:1018E700AD5A7F12121A6EAD5B7F13121A6EAD5E80
:1018F7007F14121A6EAD5F7F15121A6EAD607F16D8
:10190700121A6EAD617F17121A6EAD627F18121A26
:101917006EAD637F19121A6EAD647F1A121A6EAD1F
:06192700657F1B021A6E31
:10159A007F081219A58F4E7F091219A58F4F7F0A4E
:1015AA001219A58F527F0B1219A58F537F0C12198E
:1015BA00A58F547F0D1219A58F557F0E1219A58F6D
:1015CA00567F0F1219A58F577F101219A58F587FB2
:1015DA00111219A58F597F121219A58F5A7F13124A
:1015EA0019A58F5B7F141219A58F5E7F151219A595
:1015FA008F5F7F161219A58F607F171219A58F6149
:10160A007F181219A58F627F191219A58F637F1A85
:0D161A001219A58F647F1B1219A58F652280
:10112F00E52E75F004120A04AFF0EF75F064A4FF1A
:10113F00E56FFD3395E0FCD3ED943BEC6480948038
:10114F004003E4F56FE54DFD3395E0FCD3ED9417C7
:10115F00EC648094804003E4F54DE544FD3395E065
:10116F00FCD3ED9407EC648094804003754401E553
:10117F002CFD3395E0FCED64024C7017E52AFB3330
:10118F0095E0FAD3EB941DEA648094804005EF70EC
:10119F00028065ED64024C7017E52AFD3395E0FC83
:1011AF00D3ED941DEC648094804005EF600280487D
:1011BF00E52CFD3395E0FCED64044C6012ED640604
:1011CF004C600CED64094C6006ED640B4C7017E538
:1011DF002AFD3395E0FCD3ED941EEC64809480409F
:1011EF0005EF60028012E52AFD3395E0FCD3ED9404
:1011FF001FEC648094804003752A01E52CFD339524
:10120F00E0FCD3ED940CEC648094804003752C01CA
:10121F00E56F3395E0C3648094805003756F3BE5B1
:10122F004D3395E0C3648094805003754D17E544AA
:10123F00FD3395E0FCC3ED9401EC64809480500382
:10124F00754407E52CFD3395E0FCED64024C701AF4
:10125F00E52AFB3395E0FAC3EB9401EA64809480AE
:10126F005008EF7005752A1D806EED64024C701AE0
:10127F00E52AFD3395E0FCD3ED941DEC648094805A
:10128F004008EF6005752A01804EE52CFD3395E08F
:10129F00FCED64044C6012ED64064C600CED6409C7
:1012AF004C6006ED640B4C701AE52AFD3395E0FC9B
:1012BF00C3ED9401EC648094805008EF6005752AAB
:1012CF001E8015AF2AEF3395E0FEC3EF9401EE6455
:1012DF008094805003752A1FAF2CEF3395E0FEC327
:0D12EF00EF9401EE648094805003752C0C88
:0112FC0022CF
:1013F900AB66AA67A968900003120A3F14B40B00F0
:10140900505990141975F003A4C58325F0C5837349
:1014190002143A02143A0214400214400214470218
:10142900144702144E02144E0214550214550214A4
:101439005C900002E480219000027401801A9000FF
:1014490002740280139000027403800C90000274ED
:101459000480059000037401120AD3120A26FF338F
:1014690095E0FED3EF943BEE648094804004E4124F
:101479000AC1AB66AA67A968900001120A3FFF3347
:1014890095E0FED3EF9417EE6480948040079000B6
:1014990001E4120AD3120A263395E0C364809480CA
:1014A9005005743B120AC1AB66AA67A9689000018E
:1014B900120A3F3395E0C36480948050089000017C
:0614C9007417120AD32281
:100BA00030A003020C4B7F0A7E00121B64056BAF62
:100BB0006B7E00D3EF9428748094804016EF942AC3
:100BC00074809480500D121B1C121C2AD210E4F564
:100BD0006EC206AF6B7E00D3EF943C74809480406D
:100BE00030EF943E748094805027121B1C121C2AF4
:100BF00020A012E4FD7F04121AC97BFF7A13791931
:100C0000121B4180EB121C2AC211C210756E01D258
:100C10000620A03A3000377F147E00121B64121B9E
:100C20001C300610056ED3E56E94067480948040E7
:100C300003756E01301002B2113002052005020565
:100C40005130030A300507055D8003E4F56BA2A06F
:100C5000920030A203020D467F0A7E00121B64053B
:100C600029D3E5299414748094804005752915D200
:100C70000C30A203020D49200C03020D497F147EA3
:100C800000121B64D20BC3E5299414748094805025
:100C900003121B1C30062CE56E24FE601414601534
:100CA00014601614601714601824057016056F8000
:100CB00012054D800E0544800A052A8006052C8009
:100CC00002052E30100C20110375520130110375EE
:100CD0005E01AB66AA67A968900003120A3F14B4CC
:100CE00009005065900CF275F003A4C58325F0C58A
:100CF0008373020D0D020D14020D1E020D23020D51
:100D000028020D2D020D32020D37020D3C74011226
:100D10000A6C80359000017401120A8E802B9000BD
:100D200005801C9000068017900007801290000834
:100D3000800D900009800890000A800390000B74D9
:100D400001120AD38003E4F529A2A2920C30A30376
:100D5000020E407F0A7E00121B64056CD3E56C9482
:100D600014748094804005756C15D20430A303027E
:100D70000E43200403020E437F147E00121B64D234
:100D80000BC3E56C9414748094805003121B1C30C8
:100D9000062CE56E24FE60141460151460161460B1
:100DA0001714601824057016156F8012154D800EEB
:100DB0001544800A152A8006152C8002152E301045
:100DC0000C201103E4F552301103E4F55EAB66AA82
:100DD00067A968900003120A3F14B4090050649098
:100DE0000DED75F003A4C58325F0C58373020E08CD
:100DF000020E0F020E19020E1E020E23020E280210
:100E00000E2D020E32020E3774FF120A6C803490DF
:100E1000000174FF120A8E802A900005801C900049
:100E20000680179000078012900008800D9000093E
:100E3000800890000A800390000BE4120AD380031C
:100E4000E4F56CA2A3920430A103020EF47F0A7EA3
:100E500000121B6430A103020EF4200A03020EF4F8
:100E6000121B1C300608C206E4F56E121A3D200D56
:100E700003300E04C20DC20E301044121C2AE5527B
:100E80006007755101D202C210E55E6007755D0111
:100E9000D203C210E5527006E55E6002D205E5524B
:100EA0006006E55E6002C205E5527013E55E700FF4
:100EB000FD7F0A121A6EE4FD7F14121A6EC210AF83
:100EC00051EF3395E0FEEF640A4E7010300302D20A
:100ED00005121C2A1218A1E4F551C202AF5DEF33CE
:100EE00095E0FEEF640A4E700B121C2A1218E7E41C
:100EF000F55DC203A2A1920A30020C2005097566B5
:100F00000075670075684E30030C30050975660082
:0C0F100075670075685A12112F0213F962
:10000E00300603200B1830100302012E30020302BB
:10001E00012E30030302012E30060302012E7D0253
:10002E007F06121AC9E54D75F00A120A044430FF14
:10003E00121C95E54D75F00A120A04AFF0EF44302C
:10004E00FF121C957F3A121C95E56F75F00A120A85
:10005E00044430FF121C95E56F75F00A120A04AFC6
:10006E00F0EF4430FF121C957F3A121C95E56D752A
:10007E00F00A120A044430FF121C95E56D75F00A61
:10008E00120A04AFF0EF4430FF121C95AF2D121C74
:10009E00957D037F02121AC9E54475F003A4242C42
:1000AE00F8860308E6FA08E6F9121B417BFF7A137D
:1000BE007927121B41E52A75F00A120A044430FF13
:1000CE00121C95E52A75F00A120A04AFF0EF4430BF
:1000DE00FF121C957F2F121C95E52C75F00A120A43
:1000EE00044430FF121C95E52C75F00A120A04AF79
:1000FE00F0EF4430FF121C957BFF7A13792A121B06
:10010E0041E52E75F00A120A044430FF121C95E5E3
:10011E002E75F00A120A04AFF0EF4430FF121C9550
:10012E00200B5FE56E24FE60161460191460251412
:10013E00603114603D240570497D027F0980197D70
:10014E00027F0680137D037F02121AC97BFF7A138A
:10015E00792E802B7D037F07121AC97BFF7A1379C4
:10016E0027801C7D037F0A121AC97BFF7A13792719
:10017E00800D7D037F0F121AC97BFF7A1379271228
:10018E001B4130100302028D30020302028D300338
:10019E000302028D30060302028D300F0302027D30
:1001AE00200D03300E0FE4FD7F03121AC97BFF7A78
:1001BE00137932800DE4FD7F03121AC97BFF7A1387
:1001CE00793C121B417D01E4FF121AC97BFF7A13A1
:1001DE00794B121B41AF28AE27AD26AC251214CF9A
:1001EE00E4FFFEFDFCAB28AA27A926A8251208CC01
:1001FE00401DE4FFFE7D207C41AB28AA27A926A83E
:10020E00251208CC600250077D017F05121AC97FA6
:10021E00DF121C957BFF7A13794E121B417D017FF5
:10022E000D121AC97BFF7A137951121B41AF73AEAF
:10023E0072AD71AC701214CFE4FFFEFDFCAB73AA6D
:10024E0072A971A8701208CC401DE4FFFE7D207CBF
:10025E0041AB73AA72A971A8701208CC6002500744
:10026E007D017F0F121AC97BFF7A137954800D7DA1
:10027E0001E4FF121AC97BFF7A137957121B412032
:10028E001003020323E4FD7F03121AC97BFF7A13C6
:10029E007969121B417D017F01121AC97BFF7A1306
:1002AE007979121B417D017F06121AC9300B40E588
:1002BE005264017BFF70067A13797F80047A13797A
:1002CE0083121B417D017F0C121AC97BFF7A1379B1
:1002DE0087121B417D017F11121AC9E55E64017BF5
:1002EE00FF70067A13798D80297A137990802320F6
:1002FE0011107D017F06121AC97BFF7A137927121E
:10030E001B413011107D017F11121AC97BFF7A1328
:10031E007927121B4120020620030302062DE4FD5D
:10032E00FF121AC9AB66AA67A968900002120A3FAB
:10033E00FF3395E04F60047F7F80027F20121C9573
:10034E00E552600C2005097BFF7A137993121B414D
:10035E00E55E600C3005097BFF7A1379A2121B4112
:10036E00AB66AA67A968900002120A3FFF3395E0B8
:10037E00FEEF64044E60047F7E80027F20121C9587
:10038E007D01E4FF121AC9200B030205A9AB66AA70
:10039E0067A968900002120A3FFF3395E04F707B09
:1003AE007BFF7A13792E121B41AB66AA67A9689060
:1003BE000001120A3FFF75F00A120A044430FF12C0
:1003CE001C95AB66AA67A968900001120A3FFF75DB
:1003DE00F00A120A04AFF0EF4430FF121C957F3A78
:1003EE00121C95AB66AA67A968120A26FF75F00A59
:1003FE00120A044430FF121C95AB66AA67A9681254
:10040E000A26FF75F00A120A04AFF0EF4430FF120D
:10041E001C957BFF7A1379B1121B41AB66AA67A9B3
:10042E0068900002120A3FFF3395E0FEEF64014E22
:10043E0070507BFF7A1379BB121B41AB66AA67A97A
:10044E0068900005120A3F64017BFF70067A1379EB
:10045E00C180047A1379C6121B417BFF7A1379CBC4
:10046E00121B41AB66AA67A968900006120A3F6488
:10047E00017BFF70067A1379C180047A1379C61254
:10048E001B41AB66AA67A968900002120A3FFF33B0
:10049E0095E0FEEF64024E70507BFF7A1379D11215
:1004AE001B41AB66AA67A968900007120A3F640158
:1004BE007BFF70067A1379C180047A1379C6121BFA
:1004CE00417BFF7A1379D7121B41AB66AA67A968E5
:1004DE00900008120A3F64017BFF70067A1379C1FF
:1004EE0080047A1379C6121B41AB66AA67A968907D
:1004FE000002120A3FFF3395E0FEEF64034E705088
:10050E007BFF7A1379DD121B41AB66AA67A968904F
:10051E000009120A3F64017BFF70067A1379C180CD
:10052E00047A1379C6121B417BFF7A1379E3121BEF
:10053E0041AB66AA67A96890000A120A3F64017B64
:10054E00FF70067A1379C180047A1379C6121B41A3
:10055E00AB66AA67A968900002120A3FFF3395E0C6
:10056E00FEEF64044E600302062D7BFF7A1379E9D9
:10057E00121B41AB66AA67A96890000B120A3F6472
:10058E00017BFF70067A1379C180047A1379C61243
:10059E001B417BFF7A1379EF02062AAB66AA67A985
:1005AE0068900003120A3F14B40A0050729005C9F5
:1005BE0075F003A4C58325F0C583730205E7020514
:1005CE00F6020609020605020609020607020609D8
:1005DE0002060B02060902061D7D017F06121AC9CC
:1005EE007BFF7A13792780347D017F03121AC97B32
:1005FE00FF7A13792780258004800280067D017F93
:10060E000E80047D017F05121AC97F20021C957D84
:0F061E00017F09121AC97BFF7A1379B1121B41B0
:01062D0022AA
:101B6400E4FDFCC3ED9FEC9E5015E4FBFA0BBB00B7
:0F1B7400010AEB647D4A70F50DBD00010C80E4A1
:011B8300223F
:0B1C6900EF1FAC0670011E4C70F6224D
:0219A5008F08A9
:1019A700121C457FD0121AF6AF08121AF6121C4500
:1019B7007FD1121AF6C212121A9C8F09121C74E5F3
:1019C70009C4540F75F00AA4FEE509540F2EF50952
:0119D700FF10
:0119D80022EC
:1019D900E4FF1219A58F6D7F011219A58F6F7F0280
:1019E9001219A58F4D7F031219A58F447F0412196F
:1019F900A58F2A7F051219A58F2C7F061219A58F8D
:021A09002E228B
:041A6E008F088D0947
:101A7200E50975F00A84C454F0FEE50975F00A849C
:101A8200EE45F0F509121C457FD0121AF6AF081286
:0A1A92001AF6AF09121AF6021C74CE
:101A3D00AD6DE4FF121A6EAD6F7F01121A6EAD4DD2
:101A4D007F02121A6EAD447F03121A6EAD2A7F0407
:101A5D00121A6EAD2C7F05121A6EAD2E7F06021A6C
:011A6D006E0A
:0F1C1B00E4FF1219A5AD0753057FE4FF021A6E0F
:071C8800AD077F07021A6E91
:0F1BBC00D2B57F027E00121BCBD2B67F027E0015
:0B1BCB00EF1FAC0670011E4C70F622EC
:0C1C4500D2B5D2B6C2B5121BC7C2B6227F
:0A1C7400C2B5C2B6121BC5D2B522DC
:0B1C5100121BBCA2B59212C2B6A21278
:011C5C002265
:021AF600AD073A
:101AF800E4FBEBC39408748094805015A803ED08A8
:101B08008002C333D8FC3392B5121BC5C2B60B8012
:041B1800E1021C5179
:08000300C2B5121BBEC2B622F9
:061C8F00121BBCC2B622CC
:101A9C00E4FDFBEBC39408748094805012121BBCC1
:101AAC00ED25E0FFA2B5E4334FFDC2B60B80E43068
:0C1ABC0012051200038003121C8FAF05FE
:011AC80022FB
:031C0600121B842A
:101C0900D2827F037E00121C69C2827F327E00026B
:021C19001C6944
:101B8400EF139284EFC313139285EF1313543F138F
:0C1B94009286EF131313541F1392872244
:101BA0008F1DED7004C2808002D280E51DC4540FE9
:0C1BB000FF121C06AF1D121B84021C0952
:0E1C2A00E4FD7F01121BA07F057E00021B64FB
:101A0B00C280C281C2827F03121C067F057E001238
:101A1B001C697F02121B84121C097F057E00121C9D
:101A2B0069E4FD7F28121BA0E4FD7F0C121BA002B2
:021A3B001C2A63
:101AC900ED14600F14601114601324037012E4F50F
:101AD90008800D750840800875081480037508543E
:0D1AE900EF2508F5084480FFE4FD021BA076
:051C95007D01021BA00F
:101B41008B088A09890AAB08AA09A90A120A26FF81
:101B51006010121C957401250AF50AE43509F5098E
:031B610080E422FB
:0416B3008E108F11F5
:1016B700E51145106077C3E5106480948050077D7D
:1016C700017F2D121BA0E4F512E5114510603BD3F5
:1016D700E5119400E51064809480AE10AF114002CC
:1016E70080077CFF7DFF120AF57C007D0A120B073D
:1016F70074132512F8A605AE10AF117C007D0A12EF
:101707000B078E108F11051280BFAF12EF3395E0D4
:10171700FED3EF9400EE64809480401874122FF883
:10172700E64430FF7D01121BA0151280DD7D017F8D
:0417370030121BA0B1
:01173B00228B
:0814CF008F0B8E0A8D098C08B9
:1014D7001209838E0C8F0DE4FFFEFDFCAB0BAA0AED
:1014E700A909A8081208CC402EAC0CAD0DEC1209C6
:1014F7004AA804A905AA06AB07AF0BAE0AAD09AC0B
:1015070008120631E4FBFA792078411207261209FE
:10151700838E0E8F0F805DAC0CAD0DEC12094AA8BF
:1015270004A905AA06AB07AF0BAE0AAD09AC0812B2
:101537000631E4FBFA792078C11207261209838E57
:101547000E8F0FE4FFFEFDFCAB0BAA0AA909A80842
:101557001208CC6002501DE4FFFE7D807CBFAB0B00
:10156700AA0AA909A8081208CC600940077D017FCB
:101577002D121BA0AF0DAE0C1216B3C3E50E64807F
:101587009480400E7D017F2E121BA0AF0FAE0E126E
:0215970016B389
:01159900222F
:061859008B7A8A7B897C7A
:10185F00530707EF33333354F84440FFE4FD121BB3
:10186F00A0E4F57DAF7DEF3395E0FEC3EF9408EE76
:10187F0064809480501BAB7AAA7BA97CEF3395E0F0
:10188F008F82F583120A3FFF7D01121BA0057D8019
:01189F00D375
:0118A0002225
:031801000174006F
:101BD60000000000000000000000000000000000FF
:091BE600000000000000000022D4
:0C1C5D00C2B77F147E00121B64D2B722B5
:0A1C7E0020B7FD30B7FD20B7FD22AE
:10173C00121C5D121C7EE4FFEFFD3395E0FCC3ED43
:10174C009405EC64809480504474752FF8E4F6FE94
:10175C00EEFD3395E0FCC3ED9408EC64809480506E
:10176C002930B7FD121BD674752FF830B70EE6254D
:10177C00E04401FD74752FF8A6058008C000E6252D
:10178C00E0D000F620B7FD0E80C60F80ABE57525C6
:0E179C007625772578F57465796002C322D32F
:0117AA00221C
:101BEF00E575FEE576FFFDAC06EC12094AE4FBFA5B
:071BFF007920784102082F54
:10197000E577F508E578F509E57754807011AC084E
:10198000AD09EC12094AE4FBFA7920784180125340
:10199000087FAC08AD09EC12094AE4FBFA7920781B
:0419A000C112082F39
:0119A4002220
:10062E000209EFE86480F8E933E83360110460F002
:10063E00ED33EC337009E8FCE9FDEAFEEBFF220432
:10064E0060DED3EB9FEA9EE99DE8C2E78CF0C2F72D
:10065E0095F0400CE8CCF8E9CDF9EACEFAEBCFFBF9
:10066E001209BA85D0F05804700320D5B3E804708F
:10067E00075002B2D50209F992D5EC0460F7E4CC2A
:10068E00C0E0C398F8603B94186008400DD0E0FBC2
:10069E000209D1E4FBFAC9FC8028E830E406E4C97B
:1006AE00FBE4CAFCE830E305E4C9CACBFCE8540716
:1006BE006010F8C3E913F9EA13FAEB13FBEC13FC21
:1006CE00D8F130F52FC3E49CFCEF9BFFEE9AFEEDC4
:1006DE0099FDD0E0FBEF4E4D4C701222DB03020968
:1006EE00F6EC2CFCEF33FFEE33FEED33FDED30E791
:1006FE00EB0209D1EF2BFFEE3AFEED39FDD0E0FB18
:10070E0050130BBB00030209F9ED13FDEE13FEEFC0
:08071E0013FFEC13FC0209D1EA
:10072600EC4D6011E8497017ED33EC3304600DE4CD
:10073600FCFFFEFD22E933E8330470F80209EF12EC
:1007460009BA58046009E4CC2481500628500902ED
:1007560009F92840030209F6C0E0EB4A7044B98063
:1007660006D0E0FB0209E5EF4E701CBD8008EBFFEA
:10077600EAFEE9FD80EBE98DF0A4FEE5F002080F44
:10078600E9CDF9EAFEEBFFEF89F0A4FCE5F0CE89AE
:10079600F0A42EFFE435F0CD89F0A42DFEE435F06B
:1007A6008067EF4E7005BD80D780C3EF8BF0A4AC99
:1007B600F0EE8BF0A42CFCE435F0F8EF8AF0A42CD4
:1007C600E5F038FCE433CB8DF0A42CFCE5F03BF8E7
:1007D600EE8AF0A42CFCE5F038F8E433CF89F0A4D7
:1007E6002CFCE5F038CF3400CE89F0A42FFFE5F0DD
:1007F6003EFEE433C98DF0A42EFEE5F039CD8AF035
:10080600A42FFFE5F03EFEE43DFD33D0E0FB5007AC
:100816000BBB000F0209F9EC2CFCEF33FFEE33FEA5
:06082600ED33FD0209D1D3
:10082C000209F9EC5D046005E8590470030209EF54
:10083C001209BA580460F6EC4860F2EC7004FDFE44
:10084C00FF22C860DB2481C85009C398600250069F
:10085C000209F69850CAF582E9294B4A7005AB8219
:10086C000209E575F0007C1A7880C3EF9BEE9AEDD7
:10087C0099400DC3EF9BFFEE9AFEED99FDE842F017
:10088C00DC23ACF0D0E0FFD0E0FED0E0FDAB82206A
:10089C00E7101BEB60BAEC2CFCEF33FFEE33FEEDF4
:1008AC0033FD0209D1E803F830E705C0F075F0001C
:1008BC00EF2FFFEE33FEED33FD40B830E7C280AAD8
:1008CC0074F8CC6480CCC86480C8F58204604FC3D3
:1008DC00EB9FF5F0EA9E42F0E99D42F0E89C45F072
:1008EC00603C501DE5825FFFE582D313CB5BCBF4FC
:1008FC002B5582FB50280ABA002409B90020088025
:10090C001DE5825BFBE582D313CF5FCFF4C3132FBE
:10091C005582FF50090EBE00050DBD00010CC3EB46
:10092C009FF5F0EA9E42F0E99D42F0E89C45F060AC
:09093C0007CC4820E701B3EC22CE
:1009450075F020800E75F010800575F0087D007E2D
:10095500007F003392D530D503120B3DEC334010A8
:10096500EF33FFEE33FEED33FDEC33FCD5F0ED2236
:0E097500E5F0247EA2D513CC92E7CDCEFF2272
:10098300EDD2E7CD33EC3392D524814006E4FFFE6C
:10099300FDFC22FCE4CFCECDCC24E0501174FF80CB
:1009A300EDC3CC13CCCD13CDCE13CECF13CF047068
:0709B300F030D5DE020B3D20
:1009BA00E9D2E7C933E833F892D5EDD2E7CD33EC83
:0709CA0033FC5002B2D522FC
:1009D100EC30E7100FBF000C0EBE00080DBD000487
:1009E1000BEB6014A2D5EB13FCED92E7FD2274FF33
:1009F100FCFDFEFF22E480F8A2D574FF13FC7D808C
:030A0100E480EF9F
:03000000021627BE
:0C162700787FE4F6D8FD75817D02166E18
:100A0400C2D530F707B2D563F0FF05F030E70CB27A
:100A1400D5F4048463F0FF05F080018430D502F43A
:020A24000422AA
:100A2600BB010689828A83E0225002E722BBFE02CE
:090A3600E32289828A83E4932201
:100A3F00BB010CE58229F582E5833AF583E022506C
:100A4F0006E92582F8E622BBFE06E92582F8E222B6
:0D0A5F00E58229F582E5833AF583E49322D0
:100A6C00BB010989828A83F8E028F022500327F71A
:100A7C0022BBFE05F8E328F3228A838982F8E493EB
:020A8C0028221E
:100A8E00BB010FF8E58229F582E5833AF583E0286C
:100A9E00F0225009C58229F8E58226F622BBFE090E
:100AAE00C58229F8E22582F222F8EA2583F583E948
:030ABE0093282258
:100AC100BB010689828A83F0225002F722BBFE0114
:020AD100F3220E
:100AD300F8BB010DE58229F582E5833AF583E8F059
:100AE300225006E92582C8F622BBFE05E92582C805
:020AF300F222ED
:100AF500EF8DF0A4A8F0CF8CF0A428CE8DF0A42E15
:020B0500FE22CE
:100B0700C2D5EC30E709B2D5E4C39DFDE49CFCEE09
:100B170030E715B2D5E4C39FFFE49EFE120B4BC32B
:100B2700E49DFDE49CFC8003120B4B30D507C3E426
:060B37009FFFE49EFE2278
:0E0B3D00C3E49FFFE49EFEE49DFDE49CFC22C9
:10163300021805E493A3F8E493A34003F68001F2B0
:1016430008DFF48029E493A3F85407240CC8C333B8
:10165300C4540F4420C8834004F456800146F6DF87
:10166300E4800B01020408102040809017ABE47E55
:10167300019360BCA3FF543F30E509541FFEE4937C
:10168300A360010ECF54C025E060A840B8E493A343
:10169300FAE493A3F8E493A3C8C582C8CAC583CA6E
:1016A300F0A3C8C582C8CAC583CADFE9DEE780BE26
:0118040000E3
:100B4B00BC000BBE0029EF8DF084FFADF022E4CC8E
:100B5B00F875F008EF2FFFEE33FEEC33FCEE9DEC57
:100B6B00984005FCEE9DFE0FD5F0E9E4CEFD22ED9D
:100B7B00F8F5F0EE8420D21CFEADF075F008EF2FE7
:100B8B00FFED33FD4007985006D5F0F222C398FDD8
:050B9B000FD5F0EA2275
:00000001FF
